:020000040000fa
:080000000001040000000000f3
:020000040000fa
:100200000f8620000e7922000e01880000000000f9
:100210000c000700207820000100200011000700da
:10022000000020000000e000020032000000020098
:1002300000000000c8030200000000000040da00d7
:100240000000fe004440a900000020000000e00083
:100250000300320000002000a00188004440a800f4
:100260000000060091018800800078000000eb008b
:1002700015003700e280400032a0b4009101ba00be
:10028000e280400032a0b4009102ba00e280400057
:1002900032a0b4000002eb00472bde00f507b200ed
:1002a000602ce10004003a000059eb008301e900f2
:1002b000fdff3e00040037006128e100010032002c
:1002c0000082eb00040007001101ba000200e00008
:1002d000e8ff3a00000006003159ba008301e90046
:1002e0000c0032002159ba008301e90008003200f5
:1002f0000400e00003003a00e280400032a0b400b5
:10030000f5ff370011d9ba008301e900faff3a007e
:100310008100e800e180400032a0b4000000060047
:10032000ff3ffc0057418000684180007941800018
:10033000090044000100240018020200000000002f
:1003400000805300515525001802020000000000f3
:100350008003780009005400719e240018020200f6
:100360000000000000047800070078007140800061
:1003700018020200000000008004780008007800e5
:10038000614080001802020000000000008044006c
:10039000b041880008007800714080001802020017
:1003a00000000000800478000700780061408000b1
:1003b000180202000000000000805400c0418800c4
:1003c0000000fc000000060030158800a022a800f4
:1003d000a002ae00feff3700a002aa0000148000b9
:1003e0004100de0000000600ff3ffc00303020002e
:1003f000e4010200000000008003780020202000bb
:10040000e401020000000000000478003542800092
:100410000538e10003003c000540e10001003c001c
:10042000010037008980a8000000fc0000000600e1
:1004300000027800810278001301c0004100c8006a
:10044000f60020000600c800100180000000060031
:10045000ff3ffc0001005000b60202000000000057
:1004600000027800820278001301c0004100c80039
:100470007002020000000000b6020200000000004e
:10048000000478005940800009004200b6020200d2
:1004900000000000000278005040880083027800cd
:1004a0001301c0004100c8007002020000000000fb
:1004b000b602020000000000800478000900440039
:1004c0001a4080002b4080000a80e6000a00780075
:1004d0000b00e6000b0078004380de002e003700a2
:1004e0004220ef0060026a000a0033002a01800007
:1004f0000a00e00018003a001a0180000a00e0003b
:1005000018003200020009004555de0012003a00d2
:10051000140037002a018000fbff2f000a00e000d2
:1005200001003a000f0037000b50e10007003a00cd
:100530001a0180000a00e0000a00320002000900ef
:100540004555de0001003200060037001a0228007f
:100550001a01880003003700fafd27001a018800fd
:10056000000037001001800000000600fafd2300a3
:100570001b022c000a00e10003003d000b00e1001b
:1005800003003400030037000a0078000100370040
:100590000b007800000006000000fc0000000600d0
:1005a0000600fa00200798000000eb00000f78001a
:1005b0000c0037000000eb00100798000400370023
:1005c0000060fe001e0090000000e8001007980088
:1005d0009e009000e0822600808f5000f8ff3600d9
:1005e0001e0fe8002e0090009e0f1000f1ff390052
:1005f0000080fa00000006000000fa00e402a900f2
:10060000e422a900e442a900e462a900e4c2a9002e
:10061000011c200091407800c0cfb30000c06000f2
:100620000014a000c0e1b700210e800000002800e7
:1006300000806000116f200001007000200e880013
:10064000c801a900c821a900c841a900c881a90002
:10065000c8a1a900c8c1a900ca41a900ccc1bf0056
:10066000f043b20001c8b30001407000cce1b70014
:10067000c11c20009140780000ccb30000c0600095
:10068000a040b300cce1b700d201a900d221a9005b
:10069000d241a900b01020001008880005e1a9008f
:1006a000505320006008880011e1a900c08a200092
:1006b0007008880013e1a90040032d00d0088800cd
:1006c0001fe1a90030de2000e008880021e1a90038
:1006d000012a20009140780000ceb30000c07000d5
:1006e000a0e2b700a062a900112a20009140780082
:1006f000c0cfb30000c060000014a000a1e2b700aa
:100700000000eb0010158800512a2000914078006d
:1007100000ceb30000c060000014a000a5e2b70046
:10072000412a20009140780000ccb30000c0600056
:100730005040b300a4e2b700300128004015880003
:100740000000eb0050158800a1e2a80081e0a9009c
:10075000aac0bf007040b300aae0b7009180a80013
:100760008c60a8008cc0a90051092000914078003d
:10077000f0c8b30000c0600001c6b30001407000c3
:1007800095e0b70090e0a9000080fa0000000600a4
:100790000000fa0098ff0700d700070084c0bf00e0
:1007a0000044b2000004e0004e003200ff3ffc00b5
:1007b0008000200004ff07008000780000408000d7
:1007c000008050005041880090002000fefe07008d
:1007d0008000780000408000008050006041880068
:1007e000a0002000f8fe0700800078000040800094
:1007f00000805000704188000000fc0051418000e2
:1008000040428000808f5000010034008980a900a0
:100810006141800040428000808f50000100340020
:100820008980a9007141800040428000808f500083
:10083000010034008980a9005141800050428000ad
:10084000808f500001003d008980a9006141800037
:1008500050428000808f500001003d008980a90037
:100860007141800050428000808f500001003d00a7
:100870008980a900aafe0700f0418000504088004e
:10088000e0418000d2418000b1418000b44280004c
:100890008001780004007800edfe0700f041880038
:1008a000f0418000b0418800004280005040880044
:1008b000e0418000d2418000c1418000c4428000fc
:1008c0008001780004007800e1fe07000042880003
:1008d00000428000c041880071010700cd00070080
:1008e00084c0a90084c0bf0001c8b30001406000fb
:1008f0000004e00035003200ff3ffc005000200003
:10090000b1fe0700800078000040800000805000a9
:100910005041880060002000abfe07008000780096
:10092000004080000080500060418800700020007e
:10093000a5fe070080007800004080000080500085
:10094000704188000000fc0075fe07000041800037
:1009500050408800f0408000e2408000b1418000bb
:10096000144280008001780004007800b8fe07007f
:10097000004188001041800050408800f040800015
:10098000e2408000c1418000800178000000eb005f
:10099000affe070010418800b0428000604288002e
:1009a000714280000041800082000700b042880050
:1009b000c042800060428800714280001041800087
:1009c0007c000700c042880084e0a90086c0bf0008
:1009d0000042b2000004e0000d00320082fe070079
:1009e00070072000400e8800104280000000e800e0
:1009f000104288001142800020428000808f500009
:100a000002003500204280001042880086a0a90024
:100a10000060fe0061ff370000a0fe003600f80015
:100a2000849fbe00869fbe000000fa0086c0bf0003
:100a30000044b2000004e0001b003200904080003f
:100a400080408800804080006101b900a0408000a3
:100a5000b14080000200400083804800a040880030
:100a6000b1408800a2408000b3408000c0408000b8
:100a7000d1408000800f5100818f5900080035005f
:100a80000000eb006040880080eb27007040880089
:100a90006000b800a0408800b14088000100370025
:100aa0004c00070086c0a9008460a9000080fa00fd
:100ab0004f03be004f02be003600f9000080fe006a
:100ac00000400600801f78000000fa00c1e1a90084
:100ad0000000eb00400e8800e622a900e642a900d3
:100ae000e662a900e6c2a9008980a9000080fa0098
:100af0004f007800004006000000fa00200e800041
:100b000030408800200e80000000ea00404088004d
:100b1000304080004300dd001040880031408000fc
:100b200080ff2f000088b900204088000000eb0003
:100b3000400e8800c1e1a90010002000900e88003e
:100b4000e001200096fe0700a1e2a800e602a8004e
:100b5000f000200092fe0700e0e020001afe0700ef
:100b600000408800e602a900e00120008cfe07009a
:100b7000e622a800e001200089fe07003040800046
:100b8000b00e880030408000c00e880030408000e9
:100b9000d00e8800c1e1a80005e1a80011e1a8007d
:100ba00013e1a8001fe1a80021e1a8000080fa00dd
:100bb00000000600ff3ffc0062428000020050007f
:100bc0001802020000000000020040000000fc00cb
:100bd00000000600ff3ffc0069408000704080007c
:100be00081408000180202000000000000804400e4
:100bf0006040880079408000814080001802020037
:100c00000000000000805400704088000000fc00dc
:100c100000000600ff3ffc00d7428000e842800051
:100c200058418800a0ed26008700780018020200d5
:100c30000000000080047800000024008800780094
:100c4000180202000000000000804400604188009b
:100c500060122900870078001802020000000000de
:100c60008004780000002400880078001802020048
:100c70000000000000804400704188008841880026
:100c8000a0ed260087007800180202000000000096
:100c90008004780000002400880078001802020018
:100ca000000000000080540090418800601229007c
:100cb000870078001802020000000000800478001d
:100cc00000002c00880078001802020000000000dc
:100cd00000804400a0418800a04180000000e000a6
:100ce00002003c00090037006b0037009041800093
:100cf0000000e0003e003c00804180000000e00079
:100d00002e0034002000370063003700904180003f
:100d10000000e00012003400804180000000e0008c
:100d200043003400010037005b003700574180006a
:100d300070418000460702000000000000047800b7
:100d40003207020000000000b30e8800c20e8800c7
:100d5000d10e880010002000f04288004e003700bd
:100d600067418000784180003207020000000000e7
:100d7000b20e8800c30e8800d10e8800200020002b
:100d8000f0428800440037006041800046070200be
:100d90000000000080037800584180003207020004
:100da00000000000b10e8800c30e8800d20e88003b
:100db00030002000f0428800370037007741800083
:100dc0005041800046070200000000000004780047
:100dd0003207020000000000b10e8800c20e880039
:100de000d30e880040002000f04288002a0037001f
:100df0007041800046070200000000008003780078
:100e000060418000460702000000000000047800f6
:100e10003207020000000000b20e8800c10e8800f8
:100e2000d30e880050002000f04288001a003700de
:100e30005041800046070200000000008003780057
:100e4000684180003207020000000000b30e8800f5
:100e5000c10e8800d20e880060002000f042880099
:100e60000d00370029de2000088043000080540078
:100e70000100240018020200000000008000780039
:100e80000781400088014100000006008000eb005f
:100e900000805000000006000000fc00000006007a
:100ea000ff3ffc00b041800071408000180202004a
:100eb0000000000080047800c04180006140800094
:100ec000180202000000000080835400d74288000e
:100ed000b041800061408000180202000000000064
:100ee00080047800c0418000714080001802020038
:100ef0000000000000844400e84288000000fc007c
:040f000000000600e7
:020000040000fa
:0200000401f009
:04000000f7ff000006
:020000040000fa
:0200000401f009
:04000400c0ff000039
:020000040000fa
:0200000401f009
:04000800dfff000016
:020000040000fa
:10000800ca070000ca070000ca070000ca070000a4
:10001800ca070000ca070000ca070000ca07000094
:10002800ca070000ca070000ca0700000c05000044
:10003800ca070000ca070000ca070000ca07000074
:10004800ca070000ca070000ca070000ca07000064
:10005800ca070000ca070000ca070000ca07000054
:10006800ca070000ca070000ca070000ca07000044
:10007800ca070000ca070000ca070000ca07000034
:10008800ca070000ca070000ca070000ca07000024
:10009800ca070000ca070000ca070000ca07000014
:1000a800ca070000ca070000ca070000ca07000004
:1000b800ca070000ca070000ca070000ca070000f4
:1000c800ca070000ca070000ca070000ca070000e4
:1000d80062050000ca070000ca070000ca0700003e
:1000e800ca070000ca070000ca070000ca070000c4
:0800f800ca070000ca0700005e
:020000040000fa
:10010800ca070000ca070000ca070000ca070000a3
:10011800ca070000ca070000ca070000ca07000093
:10012800ca070000ca070000ca0700000c05000043
:10013800ca070000ca070000ca070000ca07000073
:10014800ca070000ca070000ca070000ca07000063
:10015800ca070000ca070000ca070000ca07000053
:10016800ca070000ca070000ca070000ca07000043
:10017800ca070000ca070000ca070000ca07000033
:10018800ca070000ca070000ca070000ca07000023
:10019800ca070000ca070000ca070000ca07000013
:1001a800ca070000ca070000ca070000ca07000003
:1001b800ca070000ca070000ca070000ca070000f3
:1001c800ca070000ca070000ca070000ca070000e3
:1001d80062050000ca070000ca070000ca0700003d
:1001e800ca070000ca070000ca070000ca070000c3
:0801f800ca070000ca0700005d
:020000040000fa
:100f04000008000060000000020000000000000073
:100f14000000000000000000000000000000b80015
:100f24007e0000005c05e80023030000e8230300c2
:100f34000012000003000000000000000000000098
:100f4400000000000000000000000000000000009d
:100f54000000000000000000001b0000030000006f
:100f6400000000000000fc001c5078004015c00088
:100f7400ea00000011012c00010000000000000044
:100f8400000000000000000000000000000000005d
:020000040000fa
:080f94000040da000000fe003d
:00000001FF
